:100000000C9462000C94AE050C9487050C948A0045
:100010000C948A000C948A000C948A000C948A0038
:100020000C948A000C948A000C948A000C948A0028
:100030000C948A000C948A000C948A000C948A0018
:100040000C943D050C948A000C940B050C94E5046B
:100050000C948A000C948A000C948A000C948A00F8
:100060000C948A000C948A000000000025002800EF
:100070002B0000000008000201000003040700003C
:1000800000000000000000000000240027002A00FB
:1000900000000000230026002900040404040404D6
:1000A0000404020202020202030303030303010227
:1000B00004081020408001020408102001020408F6
:1000C0001020D50511241FBECFEFD8E0DEBFCDBF75
:1000D00011E0A0E0B1E0E4E9F2E102C005900D9288
:1000E000A835B107D9F722E0A8E5B1E001C01D921B
:1000F000A532B207E1F710E0C2E6D0E004C02197D4
:10010000FE010E944209C136D107C9F70E941006BC
:100110000C9448090C940000AF92BF92CF92DF92EA
:10012000EF92FF920F931F93CF93DF936C017B01AC
:100130008B01040F151FEB015E01AE18BF08C0173D
:10014000D10759F06991D601ED91FC910190F081B0
:10015000E02DC6010995892B79F7C501DF91CF9173
:100160001F910F91FF90EF90DF90CF90BF90AF90D5
:100170000895FC01538D448D252F30E0842F90E0AD
:10018000821B930B541710F0CF9608950197089592
:10019000FC01918D828D981761F0A28DAE0FBF2F5B
:1001A000B11D5D968C91928D9F5F9F73928F90E0B1
:1001B00008958FEF9FEF0895FC01918D828D981720
:1001C00031F0828DE80FF11D858D90E008958FEF5D
:1001D0009FEF0895FC01918D228D892F90E0805C26
:1001E0009F4F821B91098F739927089587E791E0AC
:1001F0000E94EA0021E0892B09F420E0822F089573
:1002000080E090E0892B29F00E94F60081110C9487
:1002100000000895FC01A48DA80FB92FB11DA35AA9
:10022000BF4F2C91848D90E001968F739927848F16
:10023000A689B7892C93A089B1898C918370806439
:100240008C93938D848D981306C00288F389E02DDA
:1002500080818F7D80830895EF92FF920F931F938B
:10026000CF93DF93EC0181E0888F9B8D8C8D981369
:100270001AC0E889F989808185FF15C09FB7F89475
:10028000EE89FF896083E889F989808183708064C1
:1002900080839FBF81E090E0DF91CF911F910F910C
:1002A000FF90EF900895F62E0B8D10E00F5F1F4F1B
:1002B0000F731127E02E8C8D8E110CC00FB607FC2A
:1002C000FACFE889F989808185FFF5CFCE010E94B8
:1002D0000A01F1CFEB8DEC0FFD2FF11DE35AFF4F1B
:1002E000F0829FB7F8940B8FEA89FB898081806246
:1002F000CFCFCF93DF93EC01888D8823B9F0AA8903
:10030000BB89E889F9898C9185FD03C0808186FDD0
:100310000DC00FB607FCF7CF8C9185FFF2CF80811F
:1003200085FFEDCFCE010E940A01E9CFDF91CF9189
:10033000089590E0FC01EE58FF4F2491FC01E25536
:10034000FF4F3491FC01E656FF4FE491EE23C9F0D4
:10035000222339F0233001F1A8F4213019F12230A1
:1003600029F1F0E0EE0FFF1FE859FF4FA591B4917E
:100370008FB7F894EC91611126C030953E233C93E1
:100380008FBF08952730A9F02830C9F0243049F7ED
:10039000809180008F7D03C0809180008F77809353
:1003A0008000DFCF84B58F7784BDDBCF84B58F7DB0
:1003B000FBCF8091B0008F778093B000D2CF809137
:1003C000B0008F7DF9CF3E2BDACFCF93DF9390E053
:1003D000FC01E255FF4F249186569F4FFC0184910A
:1003E0008823D1F090E0880F991FFC01EA57FF4F56
:1003F000A591B491FC01E859FF4FC591D4916111C9
:100400000EC09FB7F8948C91E22FE0958E238C93C9
:100410002881E223E8839FBFDF91CF9108958FB7B2
:10042000F894EC91E22BEC938FBFF6CF3FB7F894A2
:1004300080915D0190915E01A0915F01B09160019A
:1004400026B5A89B05C02F3F19F00196A11DB11D2F
:100450003FBFBA2FA92F982F8827BC01CD01620F6B
:10046000711D811D911D42E0660F771F881F991F26
:100470004A95D1F708958F929F92AF92BF92CF92F3
:10048000DF92EF92FF926B017C010E9416024B01FA
:100490005C01C114D104E104F104B9F00E94160218
:1004A000681979098A099B09683E7340810591059D
:1004B00080F321E0C21AD108E108F10888EE880E25
:1004C00083E0981EA11CB11CE4CFFF90EF90DF9059
:1004D000CF90BF90AF909F908F90089508958EBD5C
:1004E00000000DB407FEFDCF8EB50895FF920F9367
:1004F0001F93CF93DF93F82E062F142FC4E1D2E081
:1005000060E088890E94990185E00E946F028F2D2A
:100510000E946F02802F0E946F02812F0E946F0243
:1005200061E08889DF91CF911F910F91FF900C942A
:100530009901FF920F931F93CF93DF93C82FF62E4D
:10054000172F042F60E0809124020E94990183E01C
:100550000E946F028C2F0E946F02CF2DD12F0C0FA3
:100560001D2F111DC017D10729F080E00E946F02D6
:100570008993F8CF61E080912402DF91CF911F91A0
:100580000F91FF900C9499011F93CF93DF93182F35
:10059000C4E1D2E060E088890E94990183E00E9472
:1005A0006F02812F0E946F0280E00E946F02182F5D
:1005B00061E088890E949901812FDF91CF911F917D
:1005C00008950F931F93CF93DF9300D000D0CDB742
:1005D000DEB7182F10921402109215021092160214
:1005E000109217021092180244E0BE016F5F7F4F15
:1005F0000E9499022A81898138E0839FC0011124D9
:10060000422F50E065E0559547956A95E1F7840FD4
:10061000951F092E000CAA0BBB0B8093150290931B
:100620001602A0931702B093180223FF29C032E0EC
:10063000880F991FAA1FBB1F3A95D1F72370820F0D
:10064000911DA11DB11DBA2FA92F982F88272B818D
:10065000820F911DA11DB11DBA2FA92F982F882798
:100660002C81820F911DA11DB11D809315029093C5
:100670001602A0931702B093180281E0809314022F
:100680008FEF810F0E94C402082F84E0810F0E9427
:10069000C40203FF16C091E090932202482F4F70CE
:1006A000409319026AE172E085E0810F0E9499028D
:1006B0000F900F900F900F90DF91CF911F910F919E
:1006C000089510922202EACFCF93C82F482F60EEF0
:1006D0008FE00E9476028FE00E94C402982F907EE5
:1006E00081E09C1301C080E0CF910895CF9360E03A
:1006F000809124020E94990180EA0E946F0280E0AA
:100700000E946F02C82F61E0809124020E9499012B
:10071000C0FF0BC081E60E94E10240E061E08CE294
:100720000E94760280E0CF91089584E0C1FFFBCF64
:1007300081E70E94E10240E062E0F1CFFF920F9377
:100740001F93CF93DF93C82FF62E172F042F60E04F
:10075000809124020E94990182E00E946F028C2FF6
:100760000E946F02CF2DD12F0C0F1D2F111DC0170E
:10077000D10721F089910E946F02F9CF61E0809149
:100780002402DF91CF911F910F91FF900C9499015A
:10079000CF93DF9300D000D0CDB7DEB7613011F535
:1007A0002C833B839A0144275527922F990F990F49
:1007B000990F907E622F63706860962B9A8375E024
:1007C000369527957A95E1F7298344E0BE016F5F5E
:1007D0007F4F0E949E030F900F900F900F90DF911C
:1007E000CF910895B90193E0769567959A95E1F7D1
:1007F00069832295220F207E2A831C821B82E5CFEB
:100800000F931F93CF93DF93082F162FC4E1D2E0ED
:1008100060E088890E94990182E00E946F02802F27
:100820000E946F02812F0E946F0261E08889DF9130
:10083000CF911F910F910C949901FC010190002020
:10084000E9F73197AF01481B590BBC0187E791E0ED
:100850000C948C008F929F92AF92BF920F931F9334
:10086000CF93DF93CDB7DEB7A1970FB6F894DEBF75
:100870000FBECDBF19A2423008F44AE08E010F5DD1
:100880001F4F842E912CB12CA12CA50194010E9404
:10089000E308E62FB901CA01EA30F4F4E05DD801BB
:1008A000EE938D01232B242B252B79F790E080E00C
:1008B000109719F0CD010E941D04A1960FB6F8946F
:1008C000DEBF0FBECDBFDF91CF911F910F91BF90C3
:1008D000AF909F908F900895E95CE1CFCF92DF9227
:1008E000EF92FF920F931F93CF93DF93CDB7DEB7B5
:1008F00028970FB6F894DEBF0FBECDBF0E947603D7
:10090000809119029AE1C92E92E0D92E8E010F5FD3
:100910001F4FF801D60190E09F01201B310B2817D3
:1009200039071CF42D912193F7CF809115029091F6
:100930001602A0911702B09118024297A105B105C5
:10094000A9F50E947603E0901902F801F12CCF017D
:10095000801B910B8E159F052CF4D6018D916D0196
:100960008193F5CF89E191E00E941D0440E162E1AD
:1009700070E080E090E00E942A048AE291E00E9408
:100980001D046801C601801B910B8E159F0574F430
:10099000F60161916F0170E090E080E04AE00E9412
:1009A0002A048DE291E00E941D04ECCF28960FB638
:1009B000F894DEBF0FBECDBFDF91CF911F910F9195
:1009C000FF90EF90DF90CF9008951F920F920FB697
:1009D0000F9211242F933F934F935F936F937F93C5
:1009E0008F939F93AF93BF93EF93FF9387E791E02C
:1009F0000E940A01FF91EF91BF91AF919F918F915A
:100A00007F916F915F914F913F912F910F900FBE0A
:100A10000F901F9018951F920F920FB60F921124EE
:100A20002F938F939F93EF93FF93E0918701F09122
:100A300088018081E0918D01F0918E0182FD1BC0C3
:100A40009081809190018F5F8F7320919101821727
:100A500041F0E0919001F0E0E958FE4F958F8093CE
:100A60009001FF91EF919F918F912F910F900FBE69
:100A70000F901F9018958081F4CF1F920F920FB6A0
:100A80000F9211242F933F938F939F93AF93BF9314
:100A90008091590190915A01A0915B01B0915C0144
:100AA0003091580123E0230F2D3758F50196A11DF1
:100AB000B11D209358018093590190935A01A0933E
:100AC0005B01B0935C0180915D0190915E01A0910A
:100AD0005F01B09160010196A11DB11D80935D0180
:100AE00090935E01A0935F01B0936001BF91AF91BD
:100AF0009F918F913F912F910F900FBE0F901F905C
:100B0000189526E8230F0296A11DB11DD2CF1F9282
:100B10000F920FB60F9211242F933F934F935F9331
:100B20006F937F938F939F93AF93BF93EF93FF93B5
:100B3000E0910201F09103010995FF91EF91BF91BE
:100B4000AF919F918F917F916F915F914F913F9165
:100B50002F910F900FBE0F901F9018951F920F921C
:100B60000FB60F9211242F933F934F935F936F9380
:100B70007F938F939F93AF93BF93EF93FF93E091F6
:100B80000001F09101010995FF91EF91BF91AF91A3
:100B90009F918F917F916F915F914F913F912F9195
:100BA0000F900FBE0F901F901895CF93DF93E7E73C
:100BB000F1E01382128288EE93E0A0E0B0E084833B
:100BC0009583A683B7838BE091E09183808385EC46
:100BD00090E09587848784EC90E09787868780EC07
:100BE00090E0918B808B81EC90E0938B828B82ECF8
:100BF00090E0958B848B86EC90E0978B868B118EA2
:100C0000128E138E148EC4E1D2E08AE0888B61E0EC
:100C10000E94E50161E08889DF91CF910C949901F0
:100C2000CF93DF93CDB7DEB763970FB6F894DEBFEF
:100C30000FBECDBF789484B5826084BD84B58160D9
:100C400084BD85B5826085BD85B5816085BD809197
:100C50006E00816080936E0010928100809181000F
:100C60008260809381008091810081608093810007
:100C7000809180008160809380008091B1008460C9
:100C80008093B1008091B00081608093B00080912A
:100C90007A00846080937A0080917A0082608093E9
:100CA0007A0080917A00816080937A0080917A0046
:100CB000806880937A001092C100E0918701F091E2
:100CC000880182E08083E0918301F09184011082A9
:100CD000E0918501F091860180E1808310928F017F
:100CE000E0918B01F0918C0186E08083E091890195
:100CF000F0918A01808180618083E0918901F09187
:100D00008A01808188608083E0918901F0918A0165
:100D1000808180688083E0918901F0918A018081DF
:100D20008F7D808314EAA12E10E0B12E08EBE02E17
:100D300000E0F02EDFB6F89480916101811125C0AA
:100D4000F5018491F7019491E82FF0E0EE0FFF1F79
:100D5000EA57FF4FA591B4918C91982321F461E05B
:100D60008AE00E94990161E08AE00E94E5018CB569
:100D700080618CBD8CB580648CBD61E08DE00E948B
:100D8000E50161E08BE00E94E501809161018F5FE8
:100D900080936101DFBE60E0809124020E9499018E
:100DA00080EC0E946F0261E0809124020E94990110
:100DB0006AE070E080E090E00E943B0280E80E94E0
:100DC0006403811172C060E08AE20E94000460E95D
:100DD00089E20E94000462E088E20E94000420E0B0
:100DE00030E0A90161E080E20E94C80320E030E029
:100DF000A90161E084E20E94C80320E030E0A9017B
:100E000061E080E00E94C80320E030E0A90160E0DA
:100E100084E00E94C80320E030E0A90161E088E09E
:100E20000E94C80320E030E0A90160E080E10E9458
:100E3000C80320E030E0A90161E084E10E94C8031A
:100E400020E030E0A90160E088E10E94C80310E3DF
:100E500060E0812F0E94000460E080E1810F0E9429
:100E6000000460E080E2810F0E9400041F5F1E33D7
:100E700079F760E080E60E94000460E080E70E946D
:100E8000000463E08BE20E94000444E064E680E634
:100E90000E94760240E060E680E70E94760280E0F1
:100EA0000E946403882309F4A6C084E491E00E94B0
:100EB0001D048AE291E00E941D0464E670E080E077
:100EC00090E00E943B0236CF80E991E0F80120815A
:100ED0002F2119F40197D1F7E2C080E991E0D80100
:100EE0002C912F2119F00197D1F7D9C0912CE12C29
:100EF00070E8D72E30E020E080E991E040E951E051
:100F000060E0E8E2D801FC91FF21F1F46623E1F012
:100F1000E83249F58417950708F4AC019501241BC4
:100F2000350B3695279536952795D69451F4A92DEE
:100F3000B0E0AE59BE4F1896EC929394E12C90E835
:100F4000D92EE15080E991E0019709F4A8C06F2FF4
:100F5000E111D8CF61E083E00E94E50161E083E028
:100F60000E9499019CC0BA01621B730B6817790734
:100F7000E0F2ED28DACF2E143F0409F0FFC0912CE7
:100F800082E006C10233110509F40AC14091190239
:100F90006AE172E085E0890D0E949E038091220241
:100FA000813029F480911902806480931902609144
:100FB000190284E0890D0E940004209115023091ED
:100FC0001602409117025091180260911402892D67
:100FD0000E94C80348E068E08FEF890D0E94760206
:100FE00002E310E0892D0E94C40283FFD9C00150A2
:100FF0001109C1F7D5C08FE291E00E941D048AE279
:1010000091E00E941D048EE694E09093010180938C
:101010000001809169008C7F826080936900E89A6A
:1010200080E9A82EBB24B3942E01B1E14B0E511CD4
:101030006090040170900501809006011E01E4E1BA
:101040002E0E311CE1EBF0E0F490EDE9F0E084913C
:10105000E82FF0E0EE0FFF1FE057FF4F05911491CE
:1010600061E083E00E94E50160E083E00E94990175
:1010700062E170E080E090E00E943B0261E083E08A
:101080000E94990160E083E00E94E50180E293E024
:10109000D8012C912F2109F417CF0197C9F760913E
:1010A0006A016F7360936A0110916C011F73109352
:1010B0006C0170E090E080E00E9405096B017C010A
:1010C000C0926201D0926301E0926401F0926501E6
:1010D000612F70E090E080E00E9405096093660156
:1010E000709367018093680190936901C0926F01CA
:1010F000D0927001E0927101F092720160937301DD
:1011000070937401809375019093760188E0EFE607
:10111000F1E0DE01199601900D928A95E1F7AE019A
:10112000475F5F4FFE013196CF01DA012D91AD018E
:10113000DC012D93CD0144155505B9F71092140229
:1011400081E190E0A0E0B0E0809315029093160258
:10115000A0931702B093180288E080931902AAE1C5
:10116000B2E0CF01089621912D93E817F907D9F73E
:1011700010E000E0698A7A8A8B8A7201D7019D901B
:101180007D01892D0E94C40283FDF5CE939480E0F9
:101190000F5F1F4F823009F0F5CE0233110551F772
:1011A00064E670E080E090E00E943B0280E090E026
:1011B000892B09F447CF0E94F600882309F442CF17
:1011C0000E9400003FCFA1E21A2EAA1BBB1BFD010B
:1011D0000DC0AA1FBB1FEE1FFF1FA217B307E40716
:1011E000F50720F0A21BB30BE40BF50B661F771F6E
:1011F000881F991F1A9469F760957095809590954E
:101200009B01AC01BD01CF010895E89409C097FB93
:101210003EF490958095709561957F4F8F4F9F4FCD
:101220009923A9F0F92F96E9BB279395F695879511
:1012300077956795B795F111F8CFFAF4BB0F11F4D4
:1012400060FF1BC06F5F7F4F8F4F9F4F16C088237B
:1012500011F096E911C0772321F09EE8872F762FB1
:1012600005C0662371F096E8862F70E060E02AF0F2
:101270009A95660F771F881FDAF7880F96958795DE
:1012800097F90895EE0FFF1F0590F491E02D099452
:04129000F894FFCF00
:101294006E026E02304050000000002C018C00B938
:1012A400007901EA00C800DC000A44617461206628
:1012B400726F6D2049443A3078000D0A00090043EA
:1012C400414E2042555320696E69742053756363FF
:1012D4006573730043414E2042555320696E69740F
:0812E400204661696C6564009D
:00000001FF
